:100000000C942A000C9434000C9434000C943400AA
:100010000C9434000C9434000C9434000C94340090
:100020000C9434000C9434000C9434000C94340080
:100030000C9434000C9434000C9434000C94340070
:100040000C9434000C9434000C9434000C94340060
:100050000C94340011241FBECFE5D8E0DEBFCDBF25
:100060000E94CB000C9414010C940000D998DA98EB
:10007000EFECF7E03197F1F700C00000DB9AEFEC0E
:10008000F7E03197F1F700C000009BB39F70282F75
:10009000207F922B9BBBEFECF7E03197F1F700C08C
:1000A0000000DB98EFECF7E03197F1F700C00000BB
:1000B000DB9AEFECF7E03197F1F700C000002BB3CB
:1000C0002F70F0E18F9FC0011124822B8BBB8FEC2E
:1000D00097E00197F1F700C00000DB98EFECF7E044
:1000E0003197F1F700C0000008958AB38E608ABB93
:1000F0008AB3806F8ABB82E00E94360088E20E9449
:1001000036008CE00E94360081E00E94360008959F
:10011000D99ADA98EFECF7E03197F1F700C00000D8
:10012000DB9AEFECF7E03197F1F700C000009BB3EA
:100130009F70282F207F922B9BBBEFECF7E031972D
:10014000F1F700C00000DB98EFECF7E03197F1F732
:1001500000C00000DB9AEFECF7E03197F1F700C048
:1001600000002BB32F70F0E18F9FC0011124822B70
:100170008BBB8FEC97E00197F1F700C00000DB9894
:10018000EFECF7E03197F1F700C00000089581E04F
:100190000E9436000895A49A0E9406010E947500EC
:1001A000C0E39C9BFECF80ED8C0F8A30E0F42FEFF4
:1001B00080E792E0215080409040E1F700C00000CD
:1001C0008C2F0E9410010E94C7008C2F0E94880073
:1001D0002FEF84E39CE0215080409040E1F700C085
:1001E0000000CF5FDECF80E30E9410010E94C700B5
:1001F00080E30E9488002FEF84E39CE02150804040
:100200009040E1F700C00000C1E3CBCF82E08BB9A2
:1002100088E18AB986E880BD10BC87E689B908956F
:0C0220005D9BFECF8CB90895F894FFCFD1
:00000001FF
