:100000000C942A000C9434000C9434000C943400AA
:100010000C9434000C9434000C9434000C94340090
:100020000C9434000C9434000C9434000C94340080
:100030000C9434000C9434000C9434000C94340070
:100040000C9434000C9434000C9434000C94340060
:100050000C94340011241FBECFE5D8E0DEBFCDBF25
:100060000E94CB000C94F0000C940000D998DA9810
:10007000EFECF7E03197F1F700C00000DB9AEFEC0E
:10008000F7E03197F1F700C000009BB39F70282F75
:10009000207F922B9BBBEFECF7E03197F1F700C08C
:1000A0000000DB98EFECF7E03197F1F700C00000BB
:1000B000DB9AEFECF7E03197F1F700C000002BB3CB
:1000C0002F70F0E18F9FC0011124822B8BBB8FEC2E
:1000D00097E00197F1F700C00000DB98EFECF7E044
:1000E0003197F1F700C0000008958AB38E608ABB93
:1000F0008AB3806F8ABB82E00E94360088E20E9449
:1001000036008CE00E94360081E00E94360008959F
:10011000D99ADA98EFECF7E03197F1F700C00000D8
:10012000DB9AEFECF7E03197F1F700C000009BB3EA
:100130009F70282F207F922B9BBBEFECF7E031972D
:10014000F1F700C00000DB98EFECF7E03197F1F732
:1001500000C00000DB9AEFECF7E03197F1F700C048
:1001600000002BB32F70F0E18F9FC0011124822B70
:100170008BBB8FEC97E00197F1F700C00000DB9894
:10018000EFECF7E03197F1F700C00000089581E04F
:100190000E94360008950E94E2000E9475000E94AD
:1001A000EC00C82F80ED8C0F8A3030F40E94C7001D
:1001B0008C2F0E948800F3CF0E94C70080E30E942A
:1001C0008800EDCF82E08BB988E18AB986E880BDEE
:1001D00010BC87E689B908955F9BFECF8CB1089566
:0401E000F894FFCFC1
:00000001FF
